{
  "contractName": "DVideo",
  "abi": [
    {
      "inputs": [],
      "payable": false,
      "stateMutability": "nonpayable",
      "type": "constructor"
    },
    {
      "anonymous": false,
      "inputs": [
        {
          "indexed": false,
          "internalType": "uint256",
          "name": "Adhaar_No",
          "type": "uint256"
        },
        {
          "indexed": false,
          "internalType": "string",
          "name": "PAN_No",
          "type": "string"
        },
        {
          "indexed": false,
          "internalType": "address",
          "name": "author",
          "type": "address"
        },
        {
          "indexed": false,
          "internalType": "string",
          "name": "Address",
          "type": "string"
        }
      ],
      "name": "VideoUploaded",
      "type": "event"
    },
    {
      "constant": false,
      "inputs": [
        {
          "internalType": "string",
          "name": "_videoHash",
          "type": "string"
        },
        {
          "internalType": "string",
          "name": "_title",
          "type": "string"
        }
      ],
      "name": "uploadVideo",
      "outputs": [],
      "payable": false,
      "stateMutability": "nonpayable",
      "type": "function"
    }
  ],
  "bytecode": "0x608060405234801561001057600080fd5b50610211806100206000396000f3fe608060405234801561001057600080fd5b506004361061002b5760003560e01c80638a5447c514610030575b600080fd5b6101806004803603604081101561004657600080fd5b810190808035906020019064010000000081111561006357600080fd5b82018360208201111561007557600080fd5b8035906020019184600183028401116401000000008311171561009757600080fd5b91908080601f016020809104026020016040519081016040528093929190818152602001838380828437600081840152601f19601f820116905080830192505050505050509192919290803590602001906401000000008111156100fa57600080fd5b82018360208201111561010c57600080fd5b8035906020019184600183028401116401000000008311171561012e57600080fd5b91908080601f016020809104026020016040519081016040528093929190818152602001838380828437600081840152601f19601f820116905080830192505050505050509192919290505050610182565b005b600082511161019057600080fd5b600081511161019e57600080fd5b600073ffffffffffffffffffffffffffffffffffffffff163373ffffffffffffffffffffffffffffffffffffffff1614156101d857600080fd5b505056fea265627a7a72315820a84e196688ee0947f0ed5f7e4864d4f9cdb3a8bf90c7e8f61b75e785c9b5440964736f6c63430005100032",
  "source": "pragma solidity ^0.5.0;\n\ncontract DVideo {\n  // uint public videoCount = 0;\n  // string public name = \"DVideo\";\n  //Create id=>struct mapping\n \n  // mapping(uint=>Video) public videos;\n  //Create Struct\n  struct Video {\n    uint  Adhaar_No ;\n    uint  PAN_No ;\n    address author;\n    string Address;\n\n    // uint id;\n    // string hash;\n    // string title;\n    // address author;\n  }\n\n  //Create Event\n  event VideoUploaded(\n    uint Adhaar_No,\n    string PAN_No,\n    address author,\n    string Address\n  );\n\n  constructor() public {\n  }\n\n  function uploadVideo(string memory _videoHash, string memory _title) public {\n    // Make sure the video hash exists\n    require(bytes(_videoHash).length>0);\n    // Make sure video title exists\n    require(bytes(_title).length>0);\n    // Make sure uploader address exists\n    require(msg.sender!= address(0));\n\n    // Increment video id\n    // videoCount ++;\n    // Add video to the contract\n    //  videos[videoCount] = Video(videoCount,_videoHash,_title,msg.sender);\n    // Trigger an event\n    // emit VideoUploaded(videoCount, _videoHash,_title, msg.sender);\n  }\n}\n",
  "sourcePath": "C:\\Users\\bhargav\\Desktop\\Bhargav\\7th sem\\projects\\v1\\dvideo\\src\\contracts\\DVideo.sol",
  "compiler": {
    "name": "solc",
    "version": "0.5.16+commit.9c3226ce.Emscripten.clang"
  },
  "schemaVersion": "3.4.11",
  "updatedAt": "2022-12-27T17:22:24.069Z",
  "devdoc": {
    "methods": {}
  },
  "userdoc": {
    "methods": {}
  }
}