{
  "contractName": "Identity",
  "abi": [
    {
      "inputs": [],
      "payable": false,
      "stateMutability": "nonpayable",
      "type": "constructor"
    },
    {
      "anonymous": false,
      "inputs": [
        {
          "indexed": false,
          "internalType": "uint256",
          "name": "id",
          "type": "uint256"
        },
        {
          "indexed": false,
          "internalType": "string",
          "name": "name",
          "type": "string"
        },
        {
          "indexed": false,
          "internalType": "string",
          "name": "Adhaar_No",
          "type": "string"
        },
        {
          "indexed": false,
          "internalType": "string",
          "name": "AdhaarHash",
          "type": "string"
        },
        {
          "indexed": false,
          "internalType": "string",
          "name": "PAN_No",
          "type": "string"
        },
        {
          "indexed": false,
          "internalType": "string",
          "name": "PANHash",
          "type": "string"
        },
        {
          "indexed": false,
          "internalType": "string",
          "name": "Home_Address",
          "type": "string"
        },
        {
          "indexed": false,
          "internalType": "address",
          "name": "author",
          "type": "address"
        }
      ],
      "name": "BlockUploaded",
      "type": "event"
    },
    {
      "constant": true,
      "inputs": [
        {
          "internalType": "uint256",
          "name": "",
          "type": "uint256"
        }
      ],
      "name": "blocks",
      "outputs": [
        {
          "internalType": "uint256",
          "name": "id",
          "type": "uint256"
        },
        {
          "internalType": "string",
          "name": "name",
          "type": "string"
        },
        {
          "internalType": "string",
          "name": "Adhaar_No",
          "type": "string"
        },
        {
          "internalType": "string",
          "name": "AdhaarHash",
          "type": "string"
        },
        {
          "internalType": "string",
          "name": "PANHash",
          "type": "string"
        },
        {
          "internalType": "string",
          "name": "PAN_No",
          "type": "string"
        },
        {
          "internalType": "string",
          "name": "Home_Address",
          "type": "string"
        },
        {
          "internalType": "address",
          "name": "author",
          "type": "address"
        }
      ],
      "payable": false,
      "stateMutability": "view",
      "type": "function"
    },
    {
      "constant": true,
      "inputs": [],
      "name": "idCount",
      "outputs": [
        {
          "internalType": "uint256",
          "name": "",
          "type": "uint256"
        }
      ],
      "payable": false,
      "stateMutability": "view",
      "type": "function"
    },
    {
      "constant": false,
      "inputs": [
        {
          "internalType": "string",
          "name": "name",
          "type": "string"
        },
        {
          "internalType": "string",
          "name": "Adhaar_No",
          "type": "string"
        },
        {
          "internalType": "string",
          "name": "_AdhaarHash",
          "type": "string"
        },
        {
          "internalType": "string",
          "name": "PAN_NO",
          "type": "string"
        },
        {
          "internalType": "string",
          "name": "_PANHash",
          "type": "string"
        },
        {
          "internalType": "string",
          "name": "Home_Address",
          "type": "string"
        }
      ],
      "name": "uploadVideo",
      "outputs": [],
      "payable": false,
      "stateMutability": "nonpayable",
      "type": "function"
    }
  ],
  "bytecode": "0x60806040526000805534801561001457600080fd5b506110c5806100246000396000f3fe608060405234801561001057600080fd5b50600436106100415760003560e01c80632766117214610046578063e6e46238146103f4578063f25b3f9914610412575b600080fd5b6103f2600480360360c081101561005c57600080fd5b810190808035906020019064010000000081111561007957600080fd5b82018360208201111561008b57600080fd5b803590602001918460018302840111640100000000831117156100ad57600080fd5b91908080601f016020809104026020016040519081016040528093929190818152602001838380828437600081840152601f19601f8201169050808301925050505050505091929192908035906020019064010000000081111561011057600080fd5b82018360208201111561012257600080fd5b8035906020019184600183028401116401000000008311171561014457600080fd5b91908080601f016020809104026020016040519081016040528093929190818152602001838380828437600081840152601f19601f820116905080830192505050505050509192919290803590602001906401000000008111156101a757600080fd5b8201836020820111156101b957600080fd5b803590602001918460018302840111640100000000831117156101db57600080fd5b91908080601f016020809104026020016040519081016040528093929190818152602001838380828437600081840152601f19601f8201169050808301925050505050505091929192908035906020019064010000000081111561023e57600080fd5b82018360208201111561025057600080fd5b8035906020019184600183028401116401000000008311171561027257600080fd5b91908080601f016020809104026020016040519081016040528093929190818152602001838380828437600081840152601f19601f820116905080830192505050505050509192919290803590602001906401000000008111156102d557600080fd5b8201836020820111156102e757600080fd5b8035906020019184600183028401116401000000008311171561030957600080fd5b91908080601f016020809104026020016040519081016040528093929190818152602001838380828437600081840152601f19601f8201169050808301925050505050505091929192908035906020019064010000000081111561036c57600080fd5b82018360208201111561037e57600080fd5b803590602001918460018302840111640100000000831117156103a057600080fd5b91908080601f016020809104026020016040519081016040528093929190818152602001838380828437600081840152601f19601f82011690508083019250505050505050919291929050505061070f565b005b6103fc610bed565b6040518082815260200191505060405180910390f35b61043e6004803603602081101561042857600080fd5b8101908080359060200190929190505050610bf3565b604051808981526020018060200180602001806020018060200180602001806020018873ffffffffffffffffffffffffffffffffffffffff1673ffffffffffffffffffffffffffffffffffffffff16815260200187810387528e818151815260200191508051906020019080838360005b838110156104ca5780820151818401526020810190506104af565b50505050905090810190601f1680156104f75780820380516001836020036101000a031916815260200191505b5087810386528d818151815260200191508051906020019080838360005b83811015610530578082015181840152602081019050610515565b50505050905090810190601f16801561055d5780820380516001836020036101000a031916815260200191505b5087810385528c818151815260200191508051906020019080838360005b8381101561059657808201518184015260208101905061057b565b50505050905090810190601f1680156105c35780820380516001836020036101000a031916815260200191505b5087810384528b818151815260200191508051906020019080838360005b838110156105fc5780820151818401526020810190506105e1565b50505050905090810190601f1680156106295780820380516001836020036101000a031916815260200191505b5087810383528a818151815260200191508051906020019080838360005b83811015610662578082015181840152602081019050610647565b50505050905090810190601f16801561068f5780820380516001836020036101000a031916815260200191505b50878103825289818151815260200191508051906020019080838360005b838110156106c85780820151818401526020810190506106ad565b50505050905090810190601f1680156106f55780820380516001836020036101000a031916815260200191505b509e50505050505050505050505050505060405180910390f35b600084511180610720575060008251115b61072957600080fd5b600082511161073757600080fd5b600073ffffffffffffffffffffffffffffffffffffffff163373ffffffffffffffffffffffffffffffffffffffff16141561077157600080fd5b600080815480929190600101919050555060405180610100016040528060005481526020018781526020018681526020018581526020018481526020018381526020018281526020013373ffffffffffffffffffffffffffffffffffffffff16815250600160008054815260200190815260200160002060008201518160000155602082015181600101908051906020019061080e929190610feb565b50604082015181600201908051906020019061082b929190610feb565b506060820151816003019080519060200190610848929190610feb565b506080820151816004019080519060200190610865929190610feb565b5060a0820151816005019080519060200190610882929190610feb565b5060c082015181600601908051906020019061089f929190610feb565b5060e08201518160070160006101000a81548173ffffffffffffffffffffffffffffffffffffffff021916908373ffffffffffffffffffffffffffffffffffffffff1602179055509050507fac54feed794a326ac32b7446818b51db27880714dd952b57638d1a6152666d6860005487878787878733604051808981526020018060200180602001806020018060200180602001806020018873ffffffffffffffffffffffffffffffffffffffff1673ffffffffffffffffffffffffffffffffffffffff16815260200187810387528e818151815260200191508051906020019080838360005b838110156109a1578082015181840152602081019050610986565b50505050905090810190601f1680156109ce5780820380516001836020036101000a031916815260200191505b5087810386528d818151815260200191508051906020019080838360005b83811015610a075780820151818401526020810190506109ec565b50505050905090810190601f168015610a345780820380516001836020036101000a031916815260200191505b5087810385528c818151815260200191508051906020019080838360005b83811015610a6d578082015181840152602081019050610a52565b50505050905090810190601f168015610a9a5780820380516001836020036101000a031916815260200191505b5087810384528b818151815260200191508051906020019080838360005b83811015610ad3578082015181840152602081019050610ab8565b50505050905090810190601f168015610b005780820380516001836020036101000a031916815260200191505b5087810383528a818151815260200191508051906020019080838360005b83811015610b39578082015181840152602081019050610b1e565b50505050905090810190601f168015610b665780820380516001836020036101000a031916815260200191505b50878103825289818151815260200191508051906020019080838360005b83811015610b9f578082015181840152602081019050610b84565b50505050905090810190601f168015610bcc5780820380516001836020036101000a031916815260200191505b509e50505050505050505050505050505060405180910390a1505050505050565b60005481565b6001602052806000526040600020600091509050806000015490806001018054600181600116156101000203166002900480601f016020809104026020016040519081016040528092919081815260200182805460018160011615610100020316600290048015610ca55780601f10610c7a57610100808354040283529160200191610ca5565b820191906000526020600020905b815481529060010190602001808311610c8857829003601f168201915b505050505090806002018054600181600116156101000203166002900480601f016020809104026020016040519081016040528092919081815260200182805460018160011615610100020316600290048015610d435780601f10610d1857610100808354040283529160200191610d43565b820191906000526020600020905b815481529060010190602001808311610d2657829003601f168201915b505050505090806003018054600181600116156101000203166002900480601f016020809104026020016040519081016040528092919081815260200182805460018160011615610100020316600290048015610de15780601f10610db657610100808354040283529160200191610de1565b820191906000526020600020905b815481529060010190602001808311610dc457829003601f168201915b505050505090806004018054600181600116156101000203166002900480601f016020809104026020016040519081016040528092919081815260200182805460018160011615610100020316600290048015610e7f5780601f10610e5457610100808354040283529160200191610e7f565b820191906000526020600020905b815481529060010190602001808311610e6257829003601f168201915b505050505090806005018054600181600116156101000203166002900480601f016020809104026020016040519081016040528092919081815260200182805460018160011615610100020316600290048015610f1d5780601f10610ef257610100808354040283529160200191610f1d565b820191906000526020600020905b815481529060010190602001808311610f0057829003601f168201915b505050505090806006018054600181600116156101000203166002900480601f016020809104026020016040519081016040528092919081815260200182805460018160011615610100020316600290048015610fbb5780601f10610f9057610100808354040283529160200191610fbb565b820191906000526020600020905b815481529060010190602001808311610f9e57829003601f168201915b5050505050908060070160009054906101000a900473ffffffffffffffffffffffffffffffffffffffff16905088565b828054600181600116156101000203166002900490600052602060002090601f016020900481019282601f1061102c57805160ff191683800117855561105a565b8280016001018555821561105a579182015b8281111561105957825182559160200191906001019061103e565b5b509050611067919061106b565b5090565b61108d91905b80821115611089576000816000905550600101611071565b5090565b9056fea265627a7a7231582071dc6e9b3f4a89bc960819dc1a11e5ac764ae1d607c54dba10c61f5aaff8fdf664736f6c63430005100032",
  "source": "pragma solidity ^0.5.0;\n\n\n// contract DVideo {\n   contract Identity {\n  uint public idCount = 0;\n  //  uint public videoCount = 0;\n  //  string public name = \"DVideo\";\n  //Create id=>struct mapping\n \n  mapping(uint=>Block) public blocks;\n  //Create Struct\n  // struct Video {\n  struct Block {\n   uint id;\n   string name;\n    string Adhaar_No;\n    string AdhaarHash;\n    string PANHash;\n    string PAN_No;\n    string Home_Address;\n     address author;\n\n    // uint fcount =0; //number of fieds\n   \n    // uint id;\n    // string hash;\n    // string title;\n    // address author;\n  }\n\n  //Create Event\n  event BlockUploaded(\n    uint id,\n    string name,\n    string Adhaar_No,\n    string AdhaarHash,\n    string PAN_No,\n    string PANHash,\n    string Home_Address,\n    address author\n  );\n\n  constructor() public {\n  }\n\n  function uploadVideo(string memory name,string memory  Adhaar_No,string memory _AdhaarHash,string memory PAN_NO, string memory _PANHash,string memory Home_Address) public {\n    // Make sure the aadhar hash exists\n    require(bytes( _AdhaarHash).length>0||bytes(_PANHash).length>0);\n    // Make sure  name exists\n    require(bytes(_PANHash).length>0);\n    // Make sure uploader address exists\n    require(msg.sender!= address(0));\n\n    // Increment  id\n     idCount ++;\n    // Add block to the contract\n        blocks[idCount] = Block(idCount,name,Adhaar_No,_AdhaarHash,PAN_NO,_PANHash,Home_Address,msg.sender);\n    // Trigger an event\n       emit BlockUploaded(idCount, name,Adhaar_No,_AdhaarHash,PAN_NO,_PANHash,Home_Address, msg.sender);\n  }\n}\n",
  "sourcePath": "C:\\Users\\bhargav\\Desktop\\Bhargav\\7th sem\\projects\\v1\\dvideo\\src\\contracts\\Identity.sol",
  "compiler": {
    "name": "solc",
    "version": "0.5.16+commit.9c3226ce.Emscripten.clang"
  },
  "schemaVersion": "3.4.11",
  "updatedAt": "2023-01-11T02:03:05.962Z",
  "devdoc": {
    "methods": {}
  },
  "userdoc": {
    "methods": {}
  }
}